:100000000C942A000C94D6010C94FD010C9424024B
:100010000C9447000C9447000C9447000C94A702E2
:100020000C9447000C9447000C9447000C94470034
:100030000C9447000C9447000C9447000C94470024
:100040000C9447000C9447000C9447000C94470014
:100050000C94470011241FBECFE5D8E0DEBFCDBF12
:1000600010E0A0E6B0E0E8E5F5E002C005900D92F2
:10007000A036B107D9F720E0A0E6B0E001C01D929C
:10008000AA39B207E1F70E94D3010C94AA020C949A
:100090000000E0916C00F0916D008081811107C03B
:1000A0008FEF9FEF90936200809361000895E0913D
:1000B0006C00F0916D000580F681E02D80819181CA
:1000C000909362008093610008950F931F93CF93E4
:1000D000DF9380916000811101C1C0916800D091CF
:1000E00069008E010F5F1F4F109369000093680035
:1000F00001151105B9F480916C0090916D0020916B
:100100006A0030916B0030936D0020936C009093E7
:100110006B0080936A00809163008F5F809363001F
:100120000E944900809161009091620008171907B0
:1001300020F480E0B8C081E001C080E0E0916C0074
:10014000F0916D009081911107C02FEF3FEF309338
:10015000620020936100A7C0E0916C00F0916D00F7
:100160000580F681E02D0680F781E02D2281338124
:100170000217130728F4309362002093610093C0A4
:10018000A285B3852481358146815781E9015D834C
:100190004C832681378144815581E9015B834A8301
:1001A00011962D913C911297AF014E5F5F4F24172E
:1001B000350731F42681378112963C932E9311979F
:1001C000138612869C9191509C93A489B5891097AF
:1001D00019F12685378560897189E9017D836C83F2
:1001E0002089318966857785E9017B836A83119649
:1001F0006D917C9112979F01245F3F4F62177307A7
:1002000031F42089318912963C932E931197158AE7
:10021000148A9C9191509C93268990916700921723
:1002200010F42093670030E0D901AA0FBB1FAA0F7A
:10023000BB1FAA0FBB1F2A0F3B1FD901A259BF4FDB
:1002400011960D90BC91A02DB583A48314962D9189
:100250003C9115973783268314962D913C911597E1
:10026000E9015B834A8315965C934E931497A689A4
:10027000B0E09D01220F331F220F331F220F331FC7
:10028000A20FB31FA259BF4FB387A2879C919F5F54
:100290009C932689E0919200F091930096899217A1
:1002A00008F449CF4BCFE0919200F091930026895A
:1002B00030E0F901EE0FFF1FEE0FFF1FEE0FFF1FE3
:1002C0002E0F3F1FF901E259FF4F9081923008F045
:1002D00081E09091640091110CC00CC08091650088
:1002E000909166000196909366008093650080E08F
:1002F00001C081E0DF91CF911F910F91089580910E
:100300006000882321F081E08093640008951092BA
:1003100064002091670001C02150822F90E0FC0111
:10032000EE0FFF1FEE0FFF1FEE0FFF1FE80FF91F6D
:10033000E259FF4F3081332379F3AC01440F551F4D
:10034000440F551F440F551F480F591FDF010180EF
:10035000F281E02D0280F381E02D1296FC93EE9362
:1003600011974F585F4FE417F50729F442815381E5
:10037000FD0152834183FC01EE0FFF1FEE0FFF1FB3
:10038000EE0FFF1F8E0F9F1FFC01E259FF4F0180F0
:10039000F281E02D86819781909393008093920063
:1003A00020936700089580E090E008951F920F92D7
:1003B0000FB60F9211242F933F934F935F936F9338
:1003C0007F938F939F93AF93BF93EF93FF93E091AE
:1003D0009800F09199000995FF91EF91BF91AF912D
:1003E0009F918F917F916F915F914F913F912F914D
:1003F0000F900FBE0F901F9018951F920F920FB67F
:100400000F9211242F933F934F935F936F937F939A
:100410008F939F93AF93BF93EF93FF93E0919600D9
:10042000F09197000995FF91EF91BF91AF919F9146
:100430008F917F916F915F914F913F912F910F908D
:100440000FBE0F901F9018951F920F920FB60F922C
:1004500011242F933F934F935F936F937F938F93C9
:100460009F93AF93BF93EF93FF93E0919400F0912C
:1004700095000995FF91EF91BF91AF919F918F9159
:100480007F916F915F914F913F912F910F900FBE90
:100490000F901F9018950F920FB6F8940F921F921D
:1004A00011242F923F924F925F926F927F928F9280
:1004B0009F92AF92BF92CF92DF92EF92FF920F93F3
:1004C0001F932F933F934F935F936F937F938F93DC
:1004D0009F93AF93BF93CF93DF93EF93FF93A0913D
:1004E0009200B09193000DB60D920EB60D920E943F
:1004F000650081110E947F01A0919200B09193004C
:10050000CD91CDBFDD91DEBFFF91EF91DF91CF9116
:10051000BF91AF919F918F917F916F915F914F911B
:100520003F912F911F910F91FF90EF90DF90CF900F
:10053000BF90AF909F908F907F906F905F904F9003
:100540003F902F901F900F900FBE0F9008950E9424
:080550004B021895F894FFCF4F
:00000001FF
